:0300000002036692
:0C036600787FE4F6D8FD7581390203AD04
:1004F0000226001402280014022200140224001410
:10050000022C0001160800C000F900A400B00099F8
:0C0510000092008200F80080009000BF04
:0E04C200EF25E02408F808E6F5807F057E00AF
:1004D000D3EF9400EE6480948040147D6E7C00ED38
:0F04E0001D70011CED4C70F7EF1F70E41E80E1E2
:0104EF0022EA
:10000E0020B020D28C752000752101E4F52EF52F3D
:10001E00F51EF51F8522268523278524288525296B
:10002E0030B0FD20B105B28C30B1FD20B223E4F525
:10003E0020F521F52EF52FF51EF51FD2B7852226B8
:10004E00852327852428852529F52C752D0130B289
:10005E00FDE521452060030201F020B31B051FE5DD
:10006E001F7002051EC39404E51E64809480400533
:10007E00E4F51EF51F30B3FDE51F6401451E702724
:10008E0020B4100523E52370020522852226F527CC
:10009E0030B4FD20B511E5231523700215228522FB
:1000AE002685232730B5FDE51F6402451E702720E7
:1000BE00B4100525E52570020524852428F5293080
:1000CE00B4FD20B511E525152570021524852428CB
:1000DE0085252930B5FDE51F6403451E6003020129
:1000EE00F0209008F52C752D013090FD20910975AA
:1000FE002C00752D023091FD209209752C00752D66
:10010E00033092FDE52D6401452C70427F01FE12F5
:10011E00055DAE30AF317C007D0A1203F21205424E
:10012E00AE30AF317C007D0A1203F2AE04AF051281
:10013E00052C20B40B0531E5317002053030B4FDCD
:10014E0020B50BE53115317002153030B5FDE52DBA
:10015E006402452C70427F02FE12055DAE32AF3353
:10016E007C007D0A1203F2120542AE32AF337C00E0
:10017E007D0A1203F2AE04AF0512052C20B40B0556
:10018E0033E5337002053230B4FD20B50BE533157F
:10019E00337002153230B5FDE52D6403452C7042E7
:1001AE007F03FE12055DAE34AF357C007D0A12036F
:1001BE00F2120542AE34AF357C007D0A1203F2AE68
:1001CE0004AF0512052C20B40B0535E5357002057C
:1001DE003430B4FD20B50BE53515357002153430CD
:0301EE00B5FD223A
:10047D0020900E752E00752F01752000752102D26A
:10048D00B720910E752E00752F0275200075210273
:10049D00D2B720920E752E00752F03752000752191
:1004AD0002D2B720930E752E00752F04752000759E
:0504BD002102D2B7226C
:0B055D00C2A01204C27580FFD2A022D1
:0B0537007C007D0A1203F28E388F3921
:0B054200C2A21204C27580FFD2A222E8
:0F051D007C007D0A1203F28C388D39AF39AE386D
:0B052C00C2A41204C27580FFD2A422FA
:0B056800C2A61204C27580FFD2A622BA
:10054D00758901758C4C758AD0D2AFD2A9C28C2217
:1001F10012054D7F0A7E0012056812000EE51F45AB
:100201001E600302028FE5214520703D12047DE549
:100211002F452E70167F0AFE12055D7F0A7E0012A1
:1002210005427F0A7E0012052C801EAF2FAE2E12D2
:10023100055D7F0A7E001205427F0A7E0012052CB1
:10024100C2B720B2E6D2B780AAE521640145207089
:1002510020F53875390AAF39AE3812055DAE26AFD3
:1002610027120537AE26AF2712051D308C03120465
:100271007DE521640245207015AF2FAE2E12055D7C
:10028100AE28AF29120537AE28AF2912051DE51F8B
:100291006401451E700FAE22AF23FC120539AE2258
:1002A100AF2312051DE51F6402451E60030201F420
:1002B100AE24AF25FC120539AE24AF2512051D026F
:0202C10001F446
:03000B000202C32B
:1002C300C0E0C0D0758C4C758AD0052BE52B70022D
:1002D300052AC39414E52A648094805003020361C1
:1002E300752A00752B00E521640145207034E5274C
:1002F300152770021526D3E5279405E52664809417
:10030300805002B2B7D3E5279400E5266480948039
:100313005010752600752700C28CD2B77520007562
:100323002100E521640245207034E5291529700276
:100333001528D3E5299405E528648094805002B2FA
:10034300B7D3E5299400E52864809480501075287C
:1003530000752900C28CD2B7752000752100D0D05A
:03036300D0E032B5
:100372000201F1E493A3F8E493A34003F68001F2AF
:1003820008DFF48029E493A3F85407240CC8C3338C
:10039200C4540F4420C8834004F456800146F6DF5B
:1003A200E4800B01020408102040809004F0E47EF7
:1003B200019360BCA3FF543F30E509541FFEE49350
:1003C200A360010ECF54C025E060A840B8E493A317
:1003D200FAE493A3F8E493A3C8C582C8CAC583CA42
:1003E200F0A3C8C582C8CAC583CADFE9DEE780BEFA
:01051C0000DE
:1003F200C2D5EC30E709B2D5E4C39DFDE49CFCEE26
:1004020030E715B2D5E4C39FFFE49EFE120428C371
:10041200E49DFDE49CFC800312042830D507C3E46C
:060422009FFFE49EFE2294
:10042800BC000BBE0029EF8DF084FFADF022E4CCB8
:10043800F875F008EF2FFFEE33FEEC33FCEE9DEC81
:10044800984005FCEE9DFE0FD5F0E9E4CEFD22EDC7
:10045800F8F5F0EE8420D21CFEADF075F008EF2F11
:10046800FFED33FD4007985006D5F0F222C398FD02
:050478000FD5F0EA229F
:00000001FF
